:100000000C945A00189500001895000018950000EF
:10001000189500001895000018950000189500002C
:10002000189500001895000018950000189500001C
:10003000189500001895000018950000189500000C
:1000400018950000189500000C94100518950000F4
:1000500018950000189500001895000018950000EC
:1000600018950000189500001895000018950000DC
:1000700018950000189500001895000018950000CC
:1000800018950000189500001895000018950000BC
:1000900018950000189500001895000018950000AC
:1000A000189500001895000018950000189500009C
:1000B000189500008FEF8DBFC0ECE8E64E2E88E06B
:1000C0008EBFD8E0F8E05F2EA89584B7082E877F12
:1000D00084BF88E199278093600090936000EEEFE1
:1000E000F7E0A0E0B1E088278D933197E9F78CE045
:1000F0008093C40080E08093C50088E18093C100B4
:10010000662470E07093B9007AE07093B8000E94A2
:10011000B2057091C10070687093C1000E94D00355
:1001200080E08093870280E08093860200918602BF
:100130000F3F18F011F00C94C9000E94B70585E03C
:1001400090E00E94F70410ED0E94CF0512EA0E9491
:10015000CF0581E08093000100910001003118F08B
:1001600011F00C94BF00109186020E94CF05A0E010
:10017000B1E08C918F5F8C9310F40C94AC000E94D2
:10018000C605A6E8B2E08C918F5F8C9310F40C94B6
:1001900096000E94B70585E090E00E94F70410EDFC
:1001A0000E94CF0512EA0E94CF0581E080930001F2
:1001B00000910001003118F011F00C94ED001FEFD8
:1001C0000E94CF051FE70E94CF05A0E0B1E08C910F
:1001D0008E5F8C9310F40C94D8000E94C60584EFB7
:1001E00091E00E94F7040E94B70585E090E00E942C
:1001F000F70410ED0E94CF0512EA0E94CF0581E0BE
:100200008093000100910001003118F011F00C946E
:1002100017011FE70E94CF051FEF0E94CF05A0E046
:10022000B1E08C918E5F8C9310F40C9402010E94CB
:10023000C60584EF91E00E94F7048FEF8093860259
:100240004091860200E0041718F011F00C9454015C
:100250000E94B70585E090E00E94F70410ED0E942F
:10026000CF0512EA0E94CF0581E080930001009142
:100270000001003118F011F00C944A01109186022F
:100280000E94CF05A0E0B1E08C918F5F8C9310F4B9
:100290000C9437010E94C60580918602815080939C
:1002A000860210F00C94200184EF91E00E94F70484
:1002B0000C9493000E949404082F013011F00C94C8
:1002C000CE038FE090E00E94F7048AE080938802DA
:1002D000A1E0B1E0BA93AA930E941E0422960E9464
:1002E000660481E091E00E94070581E0E1E0F1E031
:1002F00004E00A93A981BA810E948805A881B98186
:10030000E8EDFBE00E9498050FB681E0481A81E015
:10031000580A22960FBE11F00C94B50285E0E1E078
:10032000F1E003E00A93AFE7B2E00E948805AFE78F
:10033000B2E00E945105AFE6B2E00C9388E0E1E044
:10034000F1E003E00A93AFE7B2E00E948805AFE76F
:10035000B2E00E945105A0E7B2E00C938BE0E1E02F
:10036000F1E003E00A93AFE7B2E00E948805AFE74F
:10037000B2E00E945105A1E7B2E00C938EE0E1E00B
:10038000F1E003E00A93AFE7B2E00E948805AFE72F
:10039000B2E00E945105A2E7B2E00C9381E1E1E0F6
:1003A000F1E003E00A93AFE7B2E00E948805AFE70F
:1003B000B2E00E945105A3E7B2E00C9384E1E1E0D2
:1003C000F1E003E00A93AFE7B2E00E948805AFE7EF
:1003D000B2E00E945105A4E7B2E00C9387E1E1E0AE
:1003E000F1E003E00A93AFE7B2E00E948805AFE7CF
:1003F000B2E00E945105A5E7B2E00C938AE1E1E08A
:10040000F1E003E00A93AFE7B2E00E948805AFE7AE
:10041000B2E00E945105A6E7B2E00C938DE1E1E065
:10042000F1E003E00A93AFE7B2E00E948805AFE78E
:10043000B2E00E945105A7E7B2E00C9380E2E1E050
:10044000F1E003E00A93AFE7B2E00E948805AFE76E
:10045000B2E00E945105A8E7B2E00C9383E2E1E02C
:10046000F1E003E00A93AFE7B2E00E948805AFE74E
:10047000B2E00E945105A9E7B2E00C9386E2E1E008
:10048000F1E003E00A93AFE7B2E00E948805AFE72E
:10049000B2E00E945105AAE7B2E00C9389E2E1E0E4
:1004A000F1E003E00A93AFE7B2E00E948805AFE70E
:1004B000B2E00E945105ABE7B2E00C938CE2E1E0C0
:1004C000F1E003E00A93AFE7B2E00E948805AFE7EE
:1004D000B2E00E945105ACE7B2E00C938FE2E1E09C
:1004E000F1E003E00A93AFE7B2E00E948805AFE7CE
:1004F000B2E00E945105ADE7B2E00C9382E3E1E087
:10050000F1E003E00A93AFE7B2E00E948805AFE7AD
:10051000B2E00E945105AEE7B2E00C930E94B7052D
:1005200010ED0E94CF0512EA0E94CF0581E0809372
:10053000000100910001003118F011F00C94B30299
:10054000A0E0B1E0AD90BB24AEE6B2E0AA0DBB1DC9
:100550001C910E94CF05A0E0B1E08C918F5F8C933D
:1005600010F40C9499020E94C60581E091E00E946B
:10057000070581E0E1E0F1E001E00A93A981BA8199
:100580000E948805A881B981EEEDFBE00E949805E4
:100590000FB681E0481A81E0580A22960FBE11F08A
:1005A0000C94D20281E091E00E94070581E0E1E035
:1005B000F1E001E00A93A981BA810E948805A8812F
:1005C000B981E0EEFBE00E9498050FB681E0481A81
:1005D00081E0580A22960FBE11F00C9414030E9479
:1005E000B70510ED0E94CF0512EA0E94CF0581E009
:1005F0008093000100910001003118F011F00C947B
:100600000C031FEF0E94CF05A0E0B1E08C918F5F3B
:100610008C9310F40C94FA020E94C605E2EEFBE003
:100620000E94DD040E94E40481E091E00E9407053D
:1006300081E0E1E0F1E001E00A93A981BA810E9442
:100640008805A881B981E6EEFBE00E9498050FB607
:1006500081E0481A81E0580A22960FBE11F00C94EE
:1006600056030E94B70510ED0E94CF0512EA0E94C2
:10067000CF0581E08093000100910001003118F066
:1006800011F00C944E0310E00E94CF05A0E0B1E001
:100690008C918F5F8C9310F40C943C030E94C605E0
:1006A000E8EEFBE00E94DD040E94E40481E091E0BA
:1006B0000E94070581E0E1E0F1E003E00A93A981EF
:1006C000BA810E948805A881B981ECEEFBE00E9406
:1006D00098050FB681E0481A81E0580A22960FBEAD
:1006E00011F00C9492030E94B70510ED0E94CF0503
:1006F00012EA0E94CF0581E0809300010091000181
:10070000003118F011F00C9490031FEF0E94CF05F8
:10071000A0E0B1E08C918F5F8C9310F40C947E0379
:100720000E94C60581E091E00E94070581E0E1E0BA
:10073000F1E003E00A93A981BA810E948805A881AB
:10074000B981E0EFFBE00E9498050FB681E0481AFE
:1007500081E0580A22960FBE11F00C94CE030E943D
:10076000B70510ED0E94CF0512EA0E94CF0581E087
:100770008093000100910001003118F011F00C94F9
:10078000CC0310E00E94CF05A0E0B1E08C918F5F18
:100790008C9310F40C94BA030E94C6050C945A0171
:1007A0000E94B70510ED0E94CF0515EA0E94CF0503
:1007B0001AE50E94CF050E94C6050E94B70510EDFC
:1007C0000E94CF0510E80E94CF0511E00E94CF05DE
:1007D00010E00E94CF0580E08093000100910001AD
:1007E0000F3018F011F00C94000410E00E94CF05B7
:1007F000A0E0B1E08C918F5F8C9310F40C94EE0329
:100800001FEF0E94CF0510E00E94CF0580E080938B
:10081000000100910001033018F011F00C941B044A
:100820001AEA0E94CF05A0E0B1E08C918F5F8C9313
:1008300010F40C9409040E94C6050895A1E0B1E0EB
:1008400088278C930E949A04A1E0B2E08C930091D7
:1008500001020A3011F40C94650404E610E020E073
:1008600030E0A9E8B2E00D931D932D933C930E94D4
:10087000AF05A1E0B1E0EFEF0E947F040E94AC055C
:10088000009101020A3011F40C94650481E091E0BA
:100890000E940705E1E0F1E0A881B9810E9483058B
:1008A000A1E0B2E08C91A1E0B1E08D9388278C9318
:1008B000E881F981A1E0B1E00E9476040E948305FD
:1008C00081E0481A81E0580A229608958AE090E073
:1008D0000E94F7040E949A04A1E0B2E08C93009178
:1008E0000102003011F00C946A0408958F938D91E9
:1008F0008823E9F711978F910895A0E5B8E01FD0FC
:10090000803079F08D3039F0EE23C9F38D93EA957C
:1009100063FE5DD0F4CF63FC04C08DE058D08AE064
:1009200056D088278C93089580916E02882309F011
:1009300081E0089580916E02882309F408950F9252
:100940009F93AF93BF937F930F931F932F933F93E7
:10095000A9E8B2E00D911D912D913C918827802B43
:10096000812B822B832BF1F001501040204030402E
:1009700080916E02882391F3F89480916E028A959B
:1009800080936E0290916C02A8E0B2E0A90F00245F
:10099000B01D8C919395943609F4992790936C022D
:1009A000789401C088273F912F911F910F917F91DB
:1009B000BF91AF919F910F9008950E940C05802DDB
:1009C00011F005D0FACF08958DE001D08AE00090B3
:1009D000C00005FEFCCF8093C60008953197F1F763
:1009E0000895689462F80895E89462F80895EF9382
:1009F000FF93EE27E82BE92B31F0E0EDF7E031979C
:100A0000F1F70197D1F7FF91EF91089599275A9245
:100A10004A92480E591E0895C895319600200895AF
:100A20007F930F93AF93BF938F939F938FB78F93C2
:100A300080916E0204E6081B29F49091C6000E9482
:100A4000F10413C000916D02A8E0B2E07727909105
:100A5000C600A00FB71F9C93839580936E020395E9
:100A6000043609F4002700936D028F918FBF9F9188
:100A70008F91BF91AF910F917F911895040F151F22
:100A8000261F371F0895000F111F221F331F0895BF
:100A900000951095209530950F5F1F4F2F4F3F4FBA
:100AA000089500271127222733271DD08A3328F4E1
:100AB000803318F005D015D0F9CF0EF4E9CF0895A2
:100AC00080538F93402F512F622F732FDCDFDBDF9A
:100AD000D5DFD9DF8F919927080F191F291F391FDB
:100AE00008958D910895E894FCDF8032E9F38B320C
:100AF000D9F38930C9F38D3211F46894F2CF089597
:100B000088278D93089581918D938823E1F7089527
:100B100009919191992359F08A95D9F7319700233A
:100B200031F081918D930A958823C9F70895E8CF14
:100B3000689401C0E894AF93BF938D9116F09191A2
:100B400003C00E940C05902D891718F011F488231A
:100B5000A1F7BF91AF910895E89463F80895689460
:100B600063F808953C983D984498459808953D9AB7
:100B70003C9803D03D9801D03C9AEF93FF93E6E078
:100B8000F0E00E94EE04FF91EF9108953D9A3C9AA7
:100B9000F4DF3D98359BFECFF0DF3C98EECF089414
:100BA000111F01C0110F69F03D9A18F400003C9824
:100BB00002C03C9A00C0E1DF3D98359BFECFDDDFEF
:100BC000F1CF3D9A3C98D9DF3D98359BFECFE89414
:100BD0003499689462F8D1CF246C65640000720087
:100BE00074004F4E000066004F464600246F6E00B2
:040BF000246F660008
:00000001FF
