:100000000C94340018950000189500001895000015
:10001000189500001895000018950000189500002C
:10002000189500001895000018950000189500001C
:10003000189500001895000018950000189500000C
:1000400018950000189500001895000018950000FC
:1000500018950000189500001895000018950000EC
:1000600018950000189500008FEF8DBFC0E0E8E103
:100070004E2E88E08EBFD7E0F3E05F2EA89584B7C0
:10008000082E877F84BF88E1992780936000909332
:100090006000EEEFF7E0A0E0B1E088278D933197A4
:1000A000E9F76624559A549A5D9881E090E00E94A1
:1000B000660080E189B90C9455003197F1F70895F5
:1000C000689462F80895E89462F80895EF93FF93B6
:1000D000EE27E82BE92B31F0E0EAFFE03197F1F76A
:1000E0000197D1F7FF91EF910895FFFFFFFFFFFF09
:1000F000FFFFFFFFFFFFFFFFFFFFFFFFFFFFFFFF10
:100100008A9385E08A9386E78A9382E88A9380E3DC
:100110008A938FEC8A9380E28A9316C000080008C5
:1001200000080008FF07FF07FF07FF07FF07FF079B
:10013000FF07FF07006000680070007800000040C3
:10014000004800500058006068940E943A035D988F
:100150000E94AE000C94A800F894FFCF80E080933A
:10016000F8020091F802033018F011F00C94260206
:1001700080E08A938091F8028A930E94AD03A6EFF3
:10018000B2E00D931C93A6EFB2E00D911C910731E4
:1001900050E0150711F00C94F80182E08A938091E9
:1001A000F8028A930E94AD03A6EFB2E00D931C9370
:1001B000A6EFB2E00D911C91003050E0150718F049
:1001C00011F00C94E5000C94F60180E08093F902A4
:1001D000E89461F88AEF8A938091F8028A93ABEFF2
:1001E000B1E0BA93AA930E941E05A6EFB2E08D93E8
:1001F00088278C938CEF0E946D05EBEFF1E003E014
:10020000A881B9810E940506A881B981E4E7FCE0D4
:100210000E941A060FB68CEF481A80E0580A229600
:100220000FBE11F00C941B0181E08093F9020E9433
:1002300074020C9485018CEF0E946D05EBEFF1E0E8
:1002400004E0A881B9810E940506A881B981E8E788
:10025000FCE00E941A060FB68CEF481A80E0580A9C
:1002600022960FBE11F00C943C0182E08093F902BB
:100270000E9474020C9485018CEF0E946D05EBEFD7
:10028000F1E004E0A881B9810E940506A881B98146
:10029000EEE7FCE00E941A060FB68CEF481A80E0E9
:1002A000580A22960FBE11F00C945B0183E08093F4
:1002B000F9020C9485018CEF0E946D05EBEFF1E0E3
:1002C0000FE0A881B9810E940506A881B981E4E800
:1002D000FCE00E941A060FB68CEF481A80E0580A1C
:1002E00022960FBE11F00C94850180E1EBEFF1E056
:1002F0000FEF0A93ABEFB1E00E94FE05ABEFB1E068
:100300000E94CC05AAEFB2E00C93ABEFB1E08C9168
:10031000803011F00C94E800E89461F8E4E9FCE026
:1003200081E08A93FA93EA938091F8028A9381E1BB
:1003300090E08A939A930E941604A6EFB2E00D9380
:100340001C930091F902033011F00C94F001E6EADD
:10035000FCE00E940403ABEFB1E00E94FE020E94A9
:100360000B03E89461F88091F8028A93AAEFB2E057
:100370008C9199279A938A93ABEFB1E0BA93AA93A1
:100380000E94B004A6EFB2E08D9388278C93AAEF69
:10039000B2E08C918F5F8C9380E0AAEFB2E0AD90D9
:1003A000BB24AAEFB1E0AA0DBB1D8C93ABEFB1E06B
:1003B000E6EBFCE00E941A0611F00C94E0015D9A55
:1003C000ABEFB1E0EEEBFCE00E941A0611F00C94EA
:1003D000EA015D98A0E0B1E0E6ECFCE00E94730564
:1003E0000E9427028091F8020E9447050C941E0289
:1003F0000C3150E0150711F00C9404028091F802C2
:100400000E9447050C941E02003050E0150711F0C1
:100410000C941E028091F8028A9381E08A9380E511
:1004200090E08A939A9380E08A930E947503A8EFE4
:10043000B2E08C938091F8020E94AA04A8EFB2E087
:100440008C918F5F8C9310F40C94B100089584E02C
:100450000E946D0582E00E946D05E89461F8E2ED6E
:10046000FCE081E08A93FA93EA938091F8028A9300
:1004700089E190E08A939A930E941604A6EFB2E075
:100480000D931C93A7E1B3E0ECEEFCE00E94730532
:10049000E89461F8ABEFB1E080E08A93BA93AA9355
:1004A0008091F8028A938FEF8A930E94FB03A6EF54
:1004B000B2E00D931C93E89461F8A7E1B3E080E00B
:1004C0008A93BA93AA938091F8028A9380E08A93E0
:1004D0000E94FB03A6EFB2E00D931C9386E0481A3E
:1004E00080E0580A2496089581E00E946D0581E01D
:1004F0000E946D05ABEFB1E0E0EFFCE02FEF91E083
:100500000E947E05AA81BB810C93AA81BB810C91BC
:10051000003011F40C949402A0E0B1E0E0E0FDE0C2
:100520000E9473050C94CF02ABEFB1E0ECE0FDE06C
:100530002FEF91E00E947E05AA81BB810C93AA81D6
:10054000BB818C918F5F8C93AA81BB819C919A9384
:10055000ABEFB1E0ECE0FDE02FEF0E947905A88160
:10056000B9810C93A881B9810C91AA81BB814C916E
:10057000041BA881B9810C93AA81BB818C91EBEFFC
:10058000F1E0A881B9810C910A93A0E0B1E00E944A
:10059000FE05E0E0F1E0A0E0B1E00E94AD0582E000
:1005A000E0E0F1E00FEF0A93A0E0B1E00E94FE0569
:1005B0008EE2A0E0B1E00E942E06AA81BB810C93DE
:1005C000AA81BB818C918F5F8C93AA81BB818C9116
:1005D000E0E0F1E003E00A93A0E0B3E00E94FE0552
:1005E000E0E0F3E0A0E0B3E00E94AD0582E0481A4D
:1005F00080E0580A24960895A2E6B6E08D918823FB
:1006000011F00CD0FBCF08950E94A905802D11F0A8
:1006100005D0FACF08958DE001D08AE00090C000A7
:1006200005FEFCCF8093C60008953197F1F7089539
:10063000259A24982C9A239A229A2A9A80E58CBD8E
:1006400008952A9808952A9A0895689462F808955A
:10065000E89462F80895EF93FF93EE27E82BE92BD7
:1006600031F0E0EAFFE03197F1F70197D1F7FF9120
:10067000EF9108955C9AAAE1B4E088EE8D9383E04F
:100680008C933EF58AE090E00E942B03A0E0B0E05E
:1006900080E802D28FEF9FEF0DD2D7FE02C0019704
:1006A000D9F7AAE1B0E085E5F7D1E39485E5D82E46
:1006B000F7D1A9E0B0E096E00DD0AFE0B0E094E073
:1006C00009D0A1E0B0E094E005D0A5E0B0E094E06E
:1006D00001D00895D9907D01E3D111969A95D1F773
:1006E0000895C8953196002008954C814A932ED0E4
:1006F0006B817881672BA0E0B4E0B40F7D01D62E2A
:10070000CFD1A4E0B4E0B40F0A81198100240030F5
:10071000100539F07D01D12EC3D1E394D02EC0D184
:100720000DC0EAE1F4E08191919101969293829358
:100730007D01D92EB5D1E394D82EB2D1A1E0B4E099
:10074000B40F91E050D08C81259608958991992716
:10075000A1E0B4E0B80F90E146C0BF93AF939F9380
:100760005F934F9349919991903061F4A3E0B4E085
:10077000B40F7D019FD10D2D11279CD10D1569F16D
:100780000D2DFBCF913009F014C0A0E2B4E0B40FFE
:100790007D0190D11D2DE3948DD10D2DEA948AD148
:1007A0005D2DE39487D14D2D04171507B1F08A0113
:1007B000F5CFA6E2B4E0B40F7D017CD11D2DE3940A
:1007C00079D10D2DEA9476D15D2DE39473D14D2D21
:1007D0000417150711F08A01F5CF4F915F919F9192
:1007E000AF91BF9108957D01D92E5AD163D19D2D2E
:1007F0009030E1F70895AA81BB810E9414069927E1
:100800000991002389F01197AF93BF930DE00D93E9
:100810000AE00D938E5F8F4F8A939A9307D0BF9112
:10082000AF9188278C9308958A939A9390E08A8158
:100830009A938A9392DF61FC03C0073121F087C04D
:10084000003009F484C01A8081E08A931A9285DF0F
:10085000498158810417150728F4992781E00E94DF
:100860002B03E4CFE4E2F1E08A81880FE80F8827C8
:10087000F81F37DF902D35DFA4E2B4E08A81B80F8E
:100880007D0118D11D2DE39415D10D2D09231021C3
:10089000EEE3F1E08A81880FE80F8827F81F21DF57
:1008A000402D1FDF502D1DDF602D1BDF702D040F2D
:1008B000151FA02FB12FEB81FC81898198811D81AB
:1008C000A617B70711F4A42FB52F103051F011302F
:1008D00029F00E940E06F89A00B404C00E94A905EF
:1008E00001C001907D01D02CDBD01196019741F71A
:1008F000A4E2B4E08A81B80F7D01DCD01D2DE39421
:10090000D9D00D2D4981040F5881151FEA94D12E9D
:10091000C7D0E394D02EC4D0E1E0F4E08A81F80F90
:1009200080E27F01D82EBCD07F01C4D08D2D85FF01
:100930000AC0A3E0B4E04A81B40F7D01BBD08D2D85
:10094000803029F0F1CF098118812696089500277B
:100950001127FBCF9927A1E0B4E0B80F92E043CF75
:100960001C8082E08A931A92F8DE4A815B81041728
:10097000150780F461FC09C090E09A931A92EDDEAD
:10098000073119F081E02596089581E099270E94AA
:100990002B03E6CFA8E2B4E08C81B80FECE2F1E0E3
:1009A0008C81880FE80F8827F81F9BDE902D99DE39
:1009B0007D0180D01D2DE3947DD00D2D09231021C4
:1009C000E4E3F1E08C81880FE80F8827F81F89DEC7
:1009D000402D87DE502D85DE602D83DE702D040FC7
:1009E000151FE02FF12FA881B9818A819B81E6171D
:1009F000F70711F4E42FF52F7F015CD03196DD92DB
:100A00000197A9F7A8E2B4E08C81B80F7D0152D01C
:100A10001D2DE3944FD00D2D4A81040F4B81141FDF
:100A2000EA94D12E3DD0E394D02E3AD0A1E0B4E0A8
:100A3000B80F90E4D8DE259688270895A881B9815B
:100A40008A818A9388278A9381E08A93BA93AA93AA
:100A500087DF803039F081E0A881B98199279C93A4
:100A600024960895A881B9818C918D3009F4E6CF40
:100A70008A3011F480E0F0CFA881B9818D93A883EA
:100A8000B9839B819A959B83C9F68827E5CFA1E01E
:100A9000B4E0B80F98E0A7CE8F937D01D82E01C0A7
:100AA0008F935C9880EF14D010D08D2D11D05C9A6C
:100AB0008F9108958F935C988FE00AD006D0882795
:100AC00007D0DEB45C9A8F9108958F2D01D08E2DC2
:100AD0008EBD8DB587FFFDCF089599275A924A9212
:100AE000480E591E08950E94A9050D920020D9F7BD
:100AF000089599910027A90FB01F1197492F4A9582
:100B00005E2F6F2FE89411274395203019F0C89578
:100B1000802D01C080818823B9F07C917723A1F0DA
:100B2000781739F40EF0042F1395689411963196C6
:100B3000EBCF112321F0411BA11B1127B10BE8942E
:100B4000E52FF62F1196E0CF882311F000270895A6
:100B50000895C895319600200895819104D08D9311
:100B60008823D9F70895813418F08B3508F4806212
:100B70000895040F151F261F371F0895000F111F1A
:100B8000221F331F089500951095209530950F5F13
:100B90001F4F2F4F3F4F089500271127222733273C
:100BA0001DD08A3328F4803318F005D015D0F9CF42
:100BB0000EF4E9CF089580538F93402F512F622F69
:100BC000732FDCDFDBDFD5DFD9DF8F919927080FAB
:100BD000191F291F391F08958D910895E894FCDF8E
:100BE0008032E9F38B32D9F38930C9F38D3211F4B5
:100BF0006894F2CF089588278D9308950991919173
:100C0000992359F08A95D9F73197002331F08191D2
:100C10008D930A958823C9F70895EDCFF999FECFF2
:100C2000E1BDF2BD319608958FEF83959D91992393
:100C3000E1F70895689401C0E894AF93BF938D9154
:100C400016F0919103C00E94A905902D891718F004
:100C500011F48823A1F7BF91AF91089508D00F5FD9
:100C60001F4F9D91992319F08917C9F708950027FF
:100C70001127089547455400484541440000504F0E
:100C800053540000436F6E74656E742D4C656E672F
:100C900074683A00485454502F312E30203230308E
:100CA000204F4B0D0A00506F7374656420646174AB
:100CB000613A202000004C45443D4F4E00004C4519
:100CC000443D4F464600696E6465782E68746D6CCD
:100CD0000000436F6E74656E742D547970653A2010
:100CE000746578742F68746D6C0D0A004F4B0000AA
:100CF000474554202F20485454502F312E310000A6
:100D00002F696E6465782E68746D6C002000FFFF9B
:100D1000FFFFFFFFFFFFFFFFFFFFFFFFFFFFFFFFE3
:100D2000FFFFFFFFFFFFFFFFFFFFFFFFFFFFFFFFD3
:100D3000FFFFFFFFFFFFFFFFFFFFFFFFFFFFFFFFC3
:100D4000FFFFFFFFFFFFFFFFFFFFFFFFFFFFFFFFB3
:100D5000FFFFFFFFFFFFFFFFFFFFFFFFFFFFFFFFA3
:100D6000FFFFFFFFFFFFFFFFFFFFFFFFFFFFFFFF93
:100D7000FFFFFFFFFFFFFFFFFFFFFFFFFFFFFFFF83
:100D8000ADE0B1E0AA0DBB1D8EB58C93A0E0B1E043
:100D90000E94B91110F40C94A806AFE0B1E00D91D7
:100DA000112740E051E00E94A613A9E0B1E00D93A5
:100DB0001C93A9E0B1E00D911C91AEE0B1E04D9122
:100DC0005527040F151FA9E0B1E00D931C93A1E175
:100DD000B1E00D91112740E051E00E94A613AAE373
:100DE000B2E00D931C93AAE3B2E00D911C91A0E137
:100DF000B1E04D915527040F151FAAE3B2E00D9302
:100E00001C93A3E1B1E00D91112740E051E00E9455
:100E1000A613ACE3B2E00D931C93ACE3B2E00D91EA
:100E20001C91A2E1B1E04D915527040F151FACE3D1
:100E3000B2E00D931C93AAE3B2E00D911C91045013
:100E40001040AAE3B2E00D931C9381E090E0A0E093
:100E5000B1E08D939C93AAE3B2E04D915C91A0E048
:100E6000B1E00D911C910417150718F011F00C94C6
:100E700053077FEF7EBDADE4B0E00C9107FB16F0A9
:100E80000C943B07A0E0B1E0AD90BD90ADE0B1E0C7
:100E9000AA0DBB1D8EB58C93A0E0B1E00E94B911E4
:100EA00010F40C942B07289AA9E0B1E08C91ABE0E8
:100EB000B1E08C938CE0D2018C9381E00E94A0136E
:100EC00080910B01D2018C9381E00E94A0130E94BB
:100ED0001E04249682E00E949C13A9E0B1E01196C2
:100EE0008C91ABE0B1E08C938DE0D2018C9381E0EA
:100EF0000E94A01380910B01D2018C9381E00E948B
:100F0000A0130E941E04249682E00E949C1380E09D
:100F100080930B01ABE0B1E08C9180648C938EE107
:100F2000D2018C9381E00E94A01380910B01D20129
:100F30008C9381E00E94A0130E94C504249682E055
:100F40000E949C135C9A00911A01083011F00C94D5
:100F5000270800911B01063011F00C94DD07009169
:100F60002201003011F00C94DD07009123010130C3
:100F700011F00C94DD0740918902009134010417AF
:100F800011F00C94DD0740918A020091350104179D
:100F900011F00C94DD0740918B020091360104178B
:100FA00011F00C94DD0740918C0200913701041779
:100FB00011F00C94DD070E943C0900911B010030E8
:100FC00011F00C94270800911C01053411F00C94C9
:100FD00027084091890200912C01041711F00C940C
:100FE000270840918A0200912D01041711F00C94FA
:100FF000270840918B0200912E01041711F00C94E8
:10100000270840918C0200912F01041711F00C94D5
:10101000270800912501013011F00C941708009168
:101020003001083011F00C9417080E94A2090091B9
:101030002501013111F00C941F080E940B0A009148
:101040002501063011F00C9427080E94D41082E08C
:10105000481A80E0580A2296089528987AE77EBDBB
:10106000ADE4B0E00C9107FB16F00C9430087EE084
:101070007EBDADE4B0E00C9107FB16F00C9439088E
:1010800081E090E0A0E0B1E08D939C93A881B981CC
:101090004D915C91A0E0B1E00D911C9104171507F2
:1010A00018F011F00C946C08A0E0B1E0AD90BD9088
:1010B000ADE0B1E0AA0DBB1D8C918EBDADE4B0E0FA
:1010C0000C9107FB16F00C945E08A0E0B1E00E94C2
:1010D000B91110F40C944608289AA881B9810D9191
:1010E0001C910C3350E0150710F00C947D088CE334
:1010F00090E0A881B9818D939C9380E080930B014F
:10110000ABE0B1E08C9180688C938FE1D2018C933D
:1011100081E00E94A01380910B01D2018C9381E0A9
:101120000E94A0130E94C504249682E00E949C1392
:101130008FE1D2018C9381E00E94A01380910B017A
:10114000D2018C9381E00E94A0130E94070524968F
:1011500082E00E949C1380E0ABE0B1E08C9382E0DF
:10116000D2018C9381E00E94A01380910B01D201E7
:101170008C9381E00E94A0130E941E04249682E0BA
:101180000E949C1380E0ABE0B1E08C9383E0D2013D
:101190008C9381E00E94A01380910B01D2018C936B
:1011A00081E00E94A0130E941E04249682E00E9407
:1011B0009C1380E0ABE0B1E08C9300910B010F93A6
:1011C000A881B9818C91482F0F91040FABE0B1E059
:1011D0000C9386E0D2018C9381E00E94A013809151
:1011E0000B01D2018C9381E00E94A0130E941E0487
:1011F000249682E00E949C1380E0ABE0B1E08C93E7
:1012000000910B010F93A881B98111968C91482F01
:101210000F91040FABE0B1E00C9387E0D2018C9307
:1012200081E00E94A01380910B01D2018C9381E098
:101230000E94A0130E941E04249682E00E949C1328
:1012400080E080930B01ABE0B1E08C9188608C93DF
:101250008FE1D2018C9381E00E94A01380910B0159
:10126000D2018C9381E00E94A0130E94C5042496B1
:1012700082E00E949C1308950E942F110E94161173
:1012800080910E0180932E0180910F0180932F0198
:101290008091100180933001809111018093310180
:1012A0008091120180933201809113018093330168
:1012B00080912A018093340180912B018093350124
:1012C00080912C018093360180912D01809337010C
:1012D0008091140180932401809115018093250150
:1012E0008091160180932601809117018093270138
:1012F0008091180180932801809119018093290120
:101300008091890280932A0180918A0280932B0127
:1013100080918B0280932C0180918C0280932D010F
:1013200082E0809323018AE290E0D2018D939C9326
:1013300082E00E94A0130E942D08229682E00E9463
:101340009C13089582E00E94A013AEE1B1E00D91DC
:10135000112740E051E00E94A613A881B9810D93A6
:101360001C93A881B9810D911C91AFE1B1E04D9121
:101370005527040F151FA881B9810D931C93A881CF
:10138000B9810D911C91035F1F4FA881B9810D9305
:101390001C9380E08093300180E0809331010E94B3
:1013A000590B0E94FA0AA881B9810D911C910F5F17
:1013B0001F4FA881B9810D931C93A881B9818D918C
:1013C0009C91D2018D939C9382E00E94A0130E9475
:1013D0002D08229682E00E949C1382E0481A80E049
:1013E000580A22960895AEE3B2E011968C91A0E2DD
:1013F000B1E08C93AEE3B2E08C91A1E2B1E08C93CA
:10140000AEE3B2E00D911C910F5F1F4FAEE3B2E06F
:101410000D931C93089582E00E94A01381E00E9426
:10142000A01381E00E94A01388E8AA81BB818C935D
:1014300083E1A881B9818C93AA81BB818C91AC8115
:10144000BD818D9388278C9398E0AC81BD810E94EB
:10145000B613AC81BD810D911C91A881B9814D91CC
:101460005527040F151FAC81BD810D931C93AC81D2
:10147000BD814D915C91A2E3B1E00D911C910417E7
:10148000150711F00C94980AA0E3B1E00D911C919E
:10149000003055E2150711F00C94520A0E94EF0B30
:1014A0000C94BA0A00913801003011F00C94600AD3
:1014B000E8E2F9E20E9408120E940F120C94960AC8
:1014C000013011F00C946C0AE2E3F9E20E94081278
:1014D0000E940F120C94960A023011F00C94780AB4
:1014E000ECE3F9E20E9408120E940F120C94960A93
:1014F000033011F00C94840AE6E4F9E20E94081229
:101500000E940F120C94960A043011F00C94900A69
:10151000E0E5F9E20E9408120E940F120C94960A6C
:10152000EAE5F9E20E9408120E940F120C94BA0A2E
:10153000A2E3B1E00D911C91003057E0150711F0C6
:101540000C94BA0A0E94590B00913001809132012B
:1015500080933001A2E3B1E00C93009131018091BE
:10156000330180933101A3E3B1E00C930E94F00CAE
:101570000E94240B84E0481A80E0580A26960895B9
:1015800082E00E94A01381E00E94A01380E090E01E
:10159000A6E2B1E08D939C9300911C014FE00423DF
:1015A000A881B9810C9304E0A881B9814C91049F72
:1015B000A881B9810C92A881B981EC91FF27ACE197
:1015C000B1E00E94D312AA81BB810D931C93AA8122
:1015D000BB8111968C91A7E2B1E08C93AA81BB816B
:1015E0008C91A6E2B1E08C9383E0481A80E0580A1F
:1015F0002496089580E090E0A2E3B1E08D939C935F
:10160000AFE1B1E00D91112704511040A0E4B2E028
:101610000D931C93A0E4B2E0ED91FC91A0E3B1E046
:101620000E94D312AEE7B2E00D931C93AEE7B2E096
:1016300011968C91A3E3B1E08C93AEE7B2E08C916C
:10164000A2E3B1E08C930895A4E3B1E00D911127DA
:1016500040E051E00E94A613A6E8B2E00D931C936F
:10166000A6E8B2E00D911C91A5E3B1E04D9155279C
:10167000040F151FA6E8B2E00D931C93A6E8B2E094
:101680000D911C910E5D1F4FA6E8B2E00D931C93C7
:10169000A6E8B2E08D919C91D2018D939C9382E05B
:1016A0000E94A0130E942D08229682E00E949C13A3
:1016B0000895A8E2B1E00D911D912D913C91ACE20D
:1016C000B1E00D931D932D933C93A9E8B2E00D91E9
:1016D0001D912D913C91A8E2B1E00D931D932D93A6
:1016E0003C930E942F110E9416110E94C00A089577
:1016F00080E080930E018CE080930F0181E4809361
:1017000010018EEA809311018AE7809312018CED1B
:10171000809313010E94161188E090E0AAE1B1E0E5
:101720008D939C9385E480931C0180E080931D0140
:1017300080E080931E0180E380931F018AE4809300
:10174000200185EA8093210180E08093220180E0DE
:101750008093230180E88093240181E18093250117
:10176000809189028093280180918A0280932901C7
:1017700080918B0280932A0180918C0280932B01AF
:1017800081EC80932C0183E480932D018FE480937E
:101790002E018AEC80932F0183E18093300188E849
:1017A0008093310180E08093320185E280933301A0
:1017B00080E0809334018CE18093350188E5A8E3D3
:1017C000B1E08C938AE0809339018DE080933A01F7
:1017D0000E94C00A0E94F00C0E94240B0895809180
:1017E000380180939702809139018093980280910B
:1017F0003A018093990280913B0180939A02009173
:10180000970280919A0280939702AAE9B2E00C9322
:10181000009198028091990280939802A9E9B2E020
:101820000C93A7E9B2E00D911D912D913C9140E000
:101830005EE368EE73E40E94E113ABE9B2E00D935E
:101840001D932D933D93ABE9B2E00D911D912D9128
:101850003C9140E15EE060E070E00E94E113ABE9A2
:10186000B2E00D931D932D933D93E4E6F9E20E94BF
:101870000812EBE9F2E0A4EDB7E00E948C130E949D
:1018800000120E940F12ECE6F9E20E940812EBE946
:10189000F2E0A4EDB7E00E9484130E9400120E94BF
:1018A0000F12089582E00E94A01382E00E94A0130C
:1018B00080E090E0A0E4B1E08D939C930E94550DF0
:1018C00080911E018093A80280911F018093A7023E
:1018D000AAE7B2E00D911D912D913C91A7EAB2E0EB
:1018E0004D915C91662777270E94E113AAE7B2E049
:1018F0000D931D932D933D93ACE1B1E00D91112714
:101900004FE050E004231523A881B9810D931C9367
:10191000A881B9810D911C9144E050E00E94A6136A
:10192000A881B9810D931C93AAE7B2E00D911D9196
:101930002D913C91A881B9814D915C9166277727C3
:101940000E94E613AAE7B2E00D931D932D933D93F9
:10195000A7EAB2E00D911C9104511040AA81BB810D
:101960000D931C93AAE7B2E012968D919C91ABEA7D
:10197000B2E08D939C93AAE7B2E08D919C91A9EA85
:10198000B2E08D939C93ABEAB2E08D919C918A93E7
:101990009A93A9EAB2E08D919C918A939A9382E0FE
:1019A0008A93AF81B885ED91FC91A0E3B1E00E94EC
:1019B000B112AEE7B2E00D931C93AEE7B2E0119620
:1019C0008C91A1E4B1E08C93AEE7B2E08C91A0E4FD
:1019D000B1E08C9384E0481A80E0580A2496089578
:1019E00080E090E0A6E3B1E08D939C930E94550DBA
:1019F0008091340180938502809135018093840227
:101A0000AAE7B2E00D911D912D913C91A4E8B2E0BE
:101A10004D915C91662777270E94E113AAE7B2E017
:101A20000D931D932D933D938091340180938302F8
:101A30008091350180938202AAE7B2E012968D91DF
:101A40009C91ABEAB2E08D939C93AAE7B2E08D91B2
:101A50009C91A9EAB2E08D939C93A9EAB2E08D91A2
:101A60009C918A939A93ABEAB2E08D919C918A9370
:101A70009A9382E08A93A2E8B2E0ED91FC91A0E310
:101A8000B1E00E94B112AEE7B2E00D931C93AEE755
:101A9000B2E011968C91A7E3B1E08C93AEE7B2E08F
:101AA0008C91A6E3B1E08C93089500E010E020E073
:101AB00030E0AAE7B2E00D931D932D933C93809103
:101AC0002801809385028091290180938402AAE7EE
:101AD000B2E00D911D912D913C91A4E8B2E04D91A1
:101AE0005C91662777270E94E113AAE7B2E00D9385
:101AF0001D932D933D9380912A01809385028091BF
:101B00002B0180938402AAE7B2E00D911D912D91E3
:101B10003C91A4E8B2E04D915C91662777270E9442
:101B2000E113AAE7B2E00D931D932D933D938091AD
:101B30002C018093850280912D0180938402AAE775
:101B4000B2E00D911D912D913C91A4E8B2E04D9130
:101B50005C91662777270E94E113AAE7B2E00D9314
:101B60001D932D933D9380912E018093850280914A
:101B70002F0180938402AAE7B2E00D911D912D916F
:101B80003C91A4E8B2E04D915C91662777270E94D2
:101B9000E113AAE7B2E00D931D932D933D93AAE7BD
:101BA000B2E00D911D912D913C91A5E2B1E04C91D7
:101BB0005527662777270E94E113AAE7B2E00D9325
:101BC0001D932D933D9308958BE00E94A01382E016
:101BD0000E94A01381E00E94A01382E00E94A01343
:101BE00082E00E94A01382E00E94A01380913D0138
:101BF00080938802A8E8B2E08C9180FBAFE9B2E064
:101C00008C9187F98C93A8E8B2E08C9181FBAFE9C5
:101C1000B2E08C9186F98C93A8E8B2E08C9182FBBB
:101C2000AFE9B2E08C9185F98C93A8E8B2E08C9191
:101C300083FBAFE9B2E08C9184F98C93A8E8B2E021
:101C40008C9184FBAFE9B2E08C9183F98C93A8E886
:101C5000B2E08C9185FBAFE9B2E08C9182F98C9374
:101C6000AFE9B2E08C9186FB16F00C94D30EA8E29B
:101C7000B1E00D911D912D913C91ACE2B1E00D933D
:101C80001D932D933C93A9E8B2E00D911D912D91E8
:101C90003C91A8E2B1E00D931D932D933C930091EC
:101CA00031018091330180933101A3E3B1E00C93C2
:101CB000009130018091320180933001A2E3B1E0C4
:101CC0000C9381E090E0A0EAB2E08D939C93809128
:101CD00037018093A302809136018093A402809102
:101CE00035018093A502809134018093A602A3EA76
:101CF000B2E00D911D912D913C91A0EAB2E04D9181
:101D00005C91662777270E94E113A3EAB2E00D9366
:101D10001D932D933D938091A30280933B0180916D
:101D2000A40280933A018091A502809339018091A9
:101D3000A602809338018FEF809337018FEF809355
:101D4000360180E18093350181E1809334010E9466
:101D50002F117091A20271607093A20280E08093B3
:101D60003D0170913D01726070933D0170913D01A4
:101D7000706170933D0180E080931E0180E3809349
:101D80001F010E94C00A0E94520C8EE390E0D20113
:101D90008D939C9382E00E94A0130E942D082296AE
:101DA00082E00E949C13AFE9B2E08C9183FB16F0B5
:101DB0000C947A0FAFE9B2E08C9184FB16F00C948E
:101DC0007A0F80E080933D0170913D0170617093C6
:101DD0003D01A8E2B1E00D911D912D913C91ACE245
:101DE000B1E00D931D932D933C93A9E8B2E00D91C2
:101DF0001D912D913C91A8E2B1E00D931D932D937F
:101E00003C93009131018091330180933101A3E330
:101E1000B1E00C9300913001809132018093300148
:101E2000A2E3B1E00C930E942F110E94E310AEE1F7
:101E3000B1E00D91112740E051E00E94A613A0E807
:101E4000B2E00D931C93A0E8B2E00D911C91AFE1BC
:101E5000B1E04D915527040F151FA0E8B2E00D9396
:101E60001C93A3E9B2E00D911D912D913C91A0E846
:101E7000B2E04D915C91662777270E94E113A3E9B8
:101E8000B2E00D931D932D933D930E94F4100E9498
:101E9000051180E080931E0188E280931F0180E598
:101EA00080933C0180E08093440180E08093450171
:101EB00080E08093460180E08093470180E080933A
:101EC000480180E0809349010E94C00A0E94520CA0
:101ED0008CE390E0D2018D939C9382E00E94A0134A
:101EE0000E942D08229682E00E949C1381E0AE8120
:101EF000BF818C93AFE9B2E08C9183FB16F00C9418
:101F0000CE1000911E01003011F00C94CE10009103
:101F10001F01083211F00C94CE10AE81BF810C91DC
:101F2000013011F00C94CE1080E080933D0170914F
:101F30003D01706170933D0170913D017860709337
:101F40003D0170913D01716070933D01A8E2B1E0E7
:101F50000D911D912D913C91ACE2B1E00D931D933B
:101F60002D933C93A9E8B2E00D911D912D913C91E8
:101F7000A8E2B1E00D931D932D933C9300913101A4
:101F80008091330180933101A3E3B1E00C93009180
:101F900030018091320180933001A2E3B1E00C93D3
:101FA0000E942F110E94E3100E94F4100E9405115C
:101FB00087E390E0A881B9818D939C93E4E9F2E2F4
:101FC0000E94B3110E94B611A2E4B2E00E94B013C5
:101FD0000E94B311A2E4B2E00E946214EA2FFB2F28
:101FE00039970FEFAA85BB850E945914AA85BB8536
:101FF000E4E7F9E20E94681411F00C9401100C94CB
:102000006710AA85BB85EEE7F9E20E94681411F01B
:102010000C941010A2E4B2E0E8E8F9E20E94B013D8
:10202000AA85BB85ECE9F9E20E94681411F00C94D2
:102030001F10EBE9F2E0A2E4B2E00E948C13AA8543
:10204000BB85E6EAF9E20E94681411F00C942E10A8
:10205000EBE9F2E0A2E4B2E00E94841381E090E0B8
:10206000ADEAB2E08D939C93A2E4B2E00E946214C8
:10207000482F5527ADEAB2E00D911C9104171507C2
:1020800018F011F00C9465108091AD02E2E4F2E0DA
:1020900001E00A93A985BA850E945214A885B985E2
:1020A0008C91A881B981AD90BD90ADE0B1E0AA0D51
:1020B000BB1D8C93A881B9810E94B911ADEAB2E031
:1020C0000E94B91110F40C9434100C94E20F8DE0BE
:1020D000A881B981AD90BD90ADE0B1E0AA0DBB1D66
:1020E0008C93A881B9810E94B9118AE0A881B98135
:1020F000AD90BD90ADE0B1E0AA0DBB1D8C93A88161
:10210000B9810D911C910E501040A881B9810D9399
:102110001C93A881B9810D911C9140E051E00E946F
:10212000E611AC81BD814D935C93AC81BD818C91F6
:1021300080931E01AEE1B1E00D91112740E051E026
:102140000E94A613AC81BD810D931C93A881B98117
:102150000C91AC81BD814C91041BAFE1B1E00C93BB
:10216000A881B9810D911C91025F1F4FA881B9818F
:102170000D931C930E94C00A0E94520CA881B98141
:102180008D919C91D2018D939C9382E00E94A0132B
:102190000E942D08229682E00E949C1384E1481A36
:1021A00080E0580A2C96089500913201003011F019
:1021B0000C94E21000913301003511F00C94E21000
:1021C0000E94E40D089580913701809393028091DD
:1021D000360180939402809135018093950280911D
:1021E000340180939602089580913B0180933701DA
:1021F00080913A01809336018091390180933501B5
:1022000080913801809334010895809193028093E6
:102210003B018091940280933A01809195028093D2
:1022200039018091960280933801089580918D0242
:102230008093140180918E028093150180918F020A
:1022400080931601809190028093170180919102F2
:1022500080931801809192028093190108958091D2
:10226000140180930E018091150180930F018091DC
:1022700016018093100180911701809311018091C4
:1022800018018093120180911901809313010E941B
:1022900016110895485454502F312E3020323030CA
:1022A000000D0A0D0A3C68746D6C3E3C6865616403
:1022B0003E3C7469746C653EC1F3E4F3F9E0FF20C1
:1022C000ECE5F2E5EEF1F2E0EDF6E8FF3C2F7469A3
:1022D000746C653E3C2F686561643E3C626F647956
:1022E0003E0020203C426F6479206267636F6C6F10
:1022F000723D233030666130303E000D0A3C627220
:102300003E3C62723E3C623E48656C6C6F20776F6B
:1023100072643C62723E00C4E0F2F7E8EA20F2E543
:10232000ECEFE5F0E0F2F3F0FB202D204C4D3735DB
:102330003C62723E3C62723E006461746520202003
:10234000200020202020202020200074696D65209E
:102350002020200073697A657573656400656E647A
:10236000626C6F636B008E2E9F2E0895E82DF92D01
:102370000895ED91FC91EF5FFF4FFC93EE9308956C
:1023800009D00E94A61300FC10D0089503D01ED0DF
:1023900001F8F9CF0024E89457FF02C009D06894EF
:1023A00000F80BD010F80124089502D009D0089548
:1023B000509540954F5F5F4F0895E89417FF08953B
:1023C000009510950F5F1F4F68940895352F242FA7
:1023D000E894452B11F468940895512F402F00275D
:1023E000112780E1440F551F001F111F021B130B03
:1023F000416018F4020F131F4E7F8A9599F70895D4
:10240000A4EDB7E08D91882311F00CD0FBCF089597
:102410000E94C113802D11F005D0FACF08958DE0F0
:1024200001D08AE00090C00005FEFCCF8093C6007A
:10243000089500FC05D0089530D005D001F8F9CFFB
:1024400037D03FD00895842F952FA62FB72FE8942B
:10245000452B462B472B11F468940895402F512F9C
:10246000622F732F0027112722273327F0E2440F12
:10247000551F661F771F001F111F221F331F081BC8
:10248000190B2A0B3B0B416028F4080F191F2A1F58
:102490003B1F4E7FFA9559F708950024E89477FF83
:1024A00002C006D0689400F809D010F801240895FD
:1024B00012D04F5F5F4F6F4F7F4F0895E89437FF03
:1024C000089500951095209530950F5F1F4F2F4F61
:1024D0003F4F689408954095509560957095089584
:1024E0003197F1F708950E9491128C910E949512F4
:1024F0008D939A95D1F70E94931208950E9491129C
:102500008D910E9495129A95D9F70E949312089581
:10251000259A24982C9A239A229A2A9A80E58CBD8F
:1025200008952A9808952A9A08958EBD00904D0026
:1025300007FEFCCF8EB50895689462F80895E8947C
:1025400062F80895EF93FF93EE27E82BE92B31F023
:10255000E0EAFFE03197F1F70197D1F7FF91EF91B2
:1025600008957727222733279FEF3497E0FF02C093
:10257000319699270D911D914D915D9130D03297F3
:10258000D9F74D91992311F05C9101C0552727D0BF
:1025900099914991599123D09A95D9F7020F131F18
:1025A0000095109508957727222733279FEF3497BA
:1025B000E0FF02C0319699270D911D914D915D91DB
:1025C0000ED03297D9F74D91992311F05C9101C04B
:1025D000552705D0020F131F009510950895040F7D
:1025E000151F271F371F0895EDE0FF2782810E94E6
:1025F000D6138AE38D9381810E94D6138AE38D934B
:1026000080810E94D61388278C930895EDE0FF27E0
:1026100080810E94D6138DE28D9381810E94D61312
:102620008DE28D9382810E94D61388278D93089521
:102630000191119145EB55E00E94C611440F440FE2
:10264000F42E0F31150728F481E0E82E0395D02EE3
:1026500022C00C33150728F482E0E82E0E51D02E4C
:102660001AC00150150B4DE651E00E94E611F40E20
:102670007CE07A95872F9927E8E9F6E2A2E1BB276B
:102680000E94D11302171307A0F37395E72E021BC4
:10269000130B0395D02E089500001F003B005A0035
:1026A00078009700B500D400F300110130014E010D
:1026B000019111912191308140E851E561E070E094
:1026C0000E941C12042F152F0C941A1301911191C2
:1026D0002191308140E851E561E070E00E941C12D8
:1026E0000C947613019111912191308140E15EE0CB
:1026F00060E070E00E941C12F42E4CE350E00E9457
:10270000C611E42ED02E0895AF93BF930E94661396
:10271000BF91AF910C94F412AF93BF930E945813E2
:10272000BF91AF910C9406130191119121913081C9
:102730000895481A590A0895481A8827580A08958A
:1027400099275A924A92480E591E08950F92B8013D
:10275000469F8001479F100D569F100D0F900895C2
:102760000E94C1130D920020D9F70895903041F0D6
:102770000D911C91000F111F9A95E1F71C930E9378
:102780000895C89531960020089591E005C092E023
:1027900003C094E001C098E0F4DF0D929A95E1F750
:1027A0000895880F991FE80FF91FF1CF00278A308D
:1027B00018F08A500395FBCF005D0D93805D8D93DB
:1027C0000895040F151F261F371F0895041B150BAE
:1027D000260B370B0895000F111F221F331F08957A
:1027E00000951095209530950F5F1F4F2F4F3F4F4D
:1027F0000895019110810FC00E9494130EC00E9491
:10280000941310C00191108117FF05C03FEF2FEF07
:1028100004C0008111272227332737FF03C0E0DFE0
:102820008DE28D93CF92DF92EF92AA24BB24CC2429
:10283000DD24EE2440E2EAE0FF2755E093E38081C7
:10284000890F87FD9F7083FD907F891B81935A9527
:10285000A9F7C1DFAA1CBB1CCC1CDD1CEE1C4A95D1
:1028600051F7E894EFE0FF2782910CD0EB30E0F7CE
:102870001EF068948A2D0AD088278D93EF90DF9000
:10288000CF900895982F829501D0892F8F70805D09
:1028900026F0803309F4089568948D93089588276D
:1028A0008D93089509919191992359F08A95D9F7BB
:1028B0003197002331F081918D930A958823C9F7D0
:1028C0000895EDCF8FEF83959D919923E1F70895BA
:1028D000689401C0E894AF93BF938D9116F09191E5
:1028E00003C00E94C113902D891718F011F488239A
:1028F000A1F7BF91AF9108955374617274696E67C7
:10290000205475780000456E6332386A36302D7673
:10291000657273696F6E203D2000456E6320766599
:102920007273696F6E2D0000416374696F6E204190
:102930000000416374696F6E204200004163746956
:102940006F6E20430000416374696F6E2044000085
:10295000416374696F6E20450000416374696F6E56
:102960002046000044617465203A200054696D657A
:10297000203A2000656E64626C6F636B00007369BF
:102980007A657573656400003C62723E54656D70D3
:102990002E206A6A205E433C62723E006461746568
:1029A00020202020000074696D6520202020000078
:1029B000FFFFFFFFFFFFFFFFFFFFFFFFFFFFFFFF27
:1029C000FFFFFFFFFFFFFFFFFFFFFFFFFFFFFFFF17
:1029D000FFFFFFFFFFFFFFFFFFFFFFFFFFFFFFFF07
:1029E000FFFFFFFFFFFFFFFFFFFFFFFFFFFFFFFFF7
:1029F000FFFFFFFFFFFFFFFFFFFFFFFFFFFFFFFFE7
:102A000010C00191108117FF05C03FEF2FEF04C0E8
:102A1000008111272227332737FF03C0E0DF8DE233
:102A20008D93CF92DF92EF92AA24BB24CC24DD2495
:102A3000EE2440E2EAE0FF2755E093E38081890F2E
:102A400087FD9F7083FD907F891B81935A95A9F71D
:102A5000C1DFAA1CBB1CCC1CDD1CEE1C4A9551F727
:102A6000E894EFE0FF2782910CD0EB30E0F71EF006
:102A700068948A2D0AD088278D93EF90DF90CF90AD
:102A80000895982F829501D0892F8F70805D26F050
:102A9000803309F4089568948D93089588278D9361
:102AA000089509919191992359F08A95D9F7319711
:102AB000002331F081918D930A958823C9F70895F9
:102AC000EDCFFF93881BF9E0001FFA9511F4FF91F9
:102AD0000895881F841B18F4840F8894F5CF0894F8
:102AE000F3CF8FEF83959D919923E1F70895689433
:102AF00001C0E894AF93BF938D9116F0919103C0FC
:102B00000E94BC14902D891718F011F48823A1F7A6
:102B1000BF91AF9108955374617274696E672054C8
:102B200075780000456E6332386A36302D766572EE
:102B300073696F6E203D200050616B6B6574746526
:102B40006E2061616E77657A696720004163746900
:102B50006F6E20410000416374696F6E2042000077
:102B6000416374696F6E20430000416374696F6E46
:102B700020440000416374696F6E2045000041638A
:102B800074696F6E2046000044617465203A20002D
:102B900054696D65203A2000537562726F757469CF
:102BA0006E65204854545000466C6167733A0000CB
:102BB00046494E20000053594E20000052535420E5
:102BC000000050534820000041434B200000555264
:102BD000472000005463705F73796E203D20310000
:102BE0005463705F61636B203D203120414E44206F
:102BF0005463705F707368203D2031200000656E63
:102C000064626C6F636B0000FFFFFFFFFFFFFFFF5D
:102C1000FFFFFFFFFFFFFFFFFFFFFFFFFFFFFFFFC4
:102C2000FFFFFFFFFFFFFFFFFFFFFFFFFFFFFFFFB4
:102C3000FFFFFFFFFFFFFFFFFFFFFFFFFFFFFFFFA4
:102C4000FFFFFFFFFFFFFFFFFFFFFFFFFFFFFFFF94
:102C5000FFFFFFFFFFFFFFFFFFFFFFFFFFFFFFFF84
:102C6000FFFFFFFFFFFFFFFFFFFFFFFFFFFFFFFF74
:102C7000FFFFFFFFFFFFFFFFFFFFFFFFFFFFFFFF64
:102C80007573656400656E64626C6F636B008E2E95
:102C90009F2E0895E82DF92D0895ED91FC91EF5F99
:102CA000FF4FFC93EE93089509D00E94411800FC59
:102CB00010D0089503D01ED001F8F9CF0024E89475
:102CC00057FF02C009D0689400F80BD010F8012417
:102CD000089502D009D00895509540954F5F5F4FF9
:102CE0000895E89417FF0895009510950F5F1F4F02
:102CF00068940895352F242FE894452B11F4689497
:102D00000895512F402F0027112780E1440F551FB0
:102D1000001F111F021B130B416018F4020F131F39
:102D20004E7F8A9599F708958F938D918823E9F7BF
:102D300011978F910895A4EDB7E08D91882311F03C
:102D40000CD0FBCF08950E945C18802D11F005D0A7
:102D5000FACF08958DE001D08AE00090C00005FE12
:102D6000FCCF8093C600089500FC05D0089530D0B4
:102D700005D001F8F9CF37D03FD00895842F952F93
:102D8000A62FB72FE894452B462B472B11F46894B8
:102D90000895402F512F622F732F002711272227CC
:102DA0003327F0E2440F551F661F771F001F111FC6
:102DB000221F331F081B190B2A0B3B0B416028F401
:102DC000080F191F2A1F3B1F4E7FFA9559F70895C8
:102DD0000024E89477FF02C006D0689400F809D078
:102DE00010F80124089512D04F5F5F4F6F4F7F4F4F
:102DF0000895E89437FF0895009510952095309533
:102E00000F5F1F4F2F4F3F4F689408954095509587
:102E10006095709508953197F1F708950E942C17E9
:102E20008C910E9430178D939A95D1F70E942E179E
:102E300008950E942C178D910E9430179A95D9F70A
:102E40000E942E170895259A24982C9A239A229A44
:102E50002A9A80E58CBD08952A9808952A9A0895A3
:102E60008EBD00904D0007FEFCCF8EB5089568948E
:102E700062F80895E89462F80895EF93FF93EE27BF
:102E8000E82BE92B31F0E0EAFFE03197F1F7019709
:102E9000D1F7FF91EF9108957727222733279FEFEE
:102EA0003497E0FF02C0319699270D911D914D9105
:102EB0005D9130D03297D9F74D91992311F05C9103
:102EC00001C0552727D099914991599123D09A95BE
:102ED000D9F7020F131F0095109508957727222721
:102EE00033279FEF3497E0FF02C0319699270D9169
:102EF0001D914D915D910ED03297D9F74D91992347
:102F000011F05C9101C0552705D0020F131F0095E9
:102F100010950895040F151F271F371F0895EDE022
:102F2000FF2782810E9471188AE38D9381810E941C
:102F300071188AE38D9380810E94711888278C9381
:102F40000895EDE0FF2780810E9471188DE28D9336
:102F500081810E9471188DE28D9382810E94711887
:102F600088278D9308950191119145EB55E00E94BA
:102F70005A16440F440FF42E0F31150728F481E040
:102F8000E82E0395D02E22C00C33150728F482E0DA
:102F9000E82E0E51D02E1AC00150150B4DE651E00F
:102FA0000E947A16F40E7CE07A95872F9927EEEC32
:102FB000FFE2A2E1BB270E946C1802171307A0F3DF
:102FC0007395E72E021B130B0395D02E0895000076
:102FD0001F003B005A0078009700B500D400F300B2
:102FE000110130014E01019111912191308140E890
:102FF00051E561E070E00E94B716042F152F0C9484
:10300000B517019111912191308140E851E561E0BE
:1030100070E00E94B7160C94111801911191219142
:10302000308140E15EE060E070E00E94B716F42E6F
:103030004CE350E00E945A16E42ED02E0895AF9330
:10304000BF930E940118BF91AF910C948F17AF935B
:10305000BF930E94F317BF91AF910C94A1170191F8
:103060001191219130810895481A590A0895481AFA
:103070008827580A089599275A924A92480E591E4D
:1030800008950F92B801469F8001479F100D569FEB
:10309000100D0F9008950E945C180D920020D9F732
:1030A0000895903041F00D911C91000F111F9A95D9
:1030B000E1F71C930E930895C8953196002008956A
:1030C00091E005C092E003C094E001C098E0F4DF15
:1030D0000D929A95E1F70895880F991FE80FF91F4F
:1030E000F1CF00278A3018F08A500395FBCF005D9E
:1030F0000D93805D8D930895040F151F261F371FB4
:103100000895041B150B260B370B0895000F111F94
:10311000221F331F089500951095209530950F5F5D
:103120001F4F2F4F3F4F0895019110810FC00E94F4
:103130002F180EC00E942F1810C00191108117FF88
:1031400005C03FEF2FEF04C000811127222733274E
:1031500037FF03C0E0DF8DE28D93CF92DF92EF92D5
:10316000AA24BB24CC24DD24EE2440E2EAE0FF279D
:1031700055E093E38081890F87FD9F7083FD907FE9
:10318000891B81935A95A9F7C1DFAA1CBB1CCC1CD3
:10319000DD1CEE1C4A9551F7E894EFE0FF27829181
:1031A0000CD0EB30E0F71EF068948A2D0AD0882707
:1031B0008D93EF90DF90CF900895982F829501D056
:1031C000892F8F70805D26F0803309F4089568940C
:1031D0008D93089588278D9308950991919199234E
:1031E00059F08A95D9F73197002331F081918D9369
:1031F0000A958823C9F70895EDCF8FEF83959D91A8
:103200009923E1F70895689401C0E894AF93BF93C0
:103210008D9116F0919103C00E945C18902D891732
:1032200018F011F48823A1F7BF91AF910895689425
:1032300001C0E8942227102F231709F4089526F4DB
:103240000E945C18802D01C08191803081F0891727
:1032500041F070E08D931A9591F7239571E01D93DD
:10326000EACF01D0E8CF703011F0772708957723A7
:1032700031F42395882713958D931A95E9F70895CE
:103280005374617274696E67205475780000456EDE
:103290006332386A36302D76657273696F6E203D01
:1032A0002000444E532D726573706F6E736500007D
:1032B00044617465203A200054696D65203A20000D
:1032C000474554202F004C45444F4E004C45444F39
:1032D00046460000656E64626C6F636B0000736944
:1032E0007A657573656400003C62723E557365646F
:1032F0003A2000002062797465730000646174658F
:1033000020202020000074696D652020202000000E
:10331000636F70796C65667400003C62723E77770B
:10332000772E6D656D626572732E686F6D652E6E9A
:103330006C2F627A696A6C737472613C62723E00CF
:103340007777772E676F6F676C652E6E6C006D6197
:10335000696C2E686F6D652E6E6C00007777772E26
:10336000686F6D652E6E6C00FFFFFFFFFFFFFFFFB4
:10337000FFFFFFFFFFFFFFFFFFFFFFFFFFFFFFFF5D
:10338000FFFFFFFFFFFFFFFFFFFFFFFFFFFFFFFF4D
:10339000FFFFFFFFFFFFFFFFFFFFFFFFFFFFFFFF3D
:1033A000FFFFFFFFFFFFFFFFFFFFFFFFFFFFFFFF2D
:107800000C94343C0C94513C0C94513C0C94513CE1
:107810000C94513C0C94513C0C94513C0C94513CB4
:107820000C94513C0C94513C0C94513C0C94513CA4
:107830000C94513C0C94513C0C94513C0C94513C94
:107840000C94513C0C94513C0C94513C0C94513C84
:107850000C94513C0C94513C0C94513C0C94513C74
:107860000C94513C0C94513C11241FBECFEFD8E036
:10787000DEBFCDBF11E0A0E0B1E0ECE9FFE702C060
:1078800005900D92A230B107D9F712E0A2E0B1E065
:1078900001C01D92AD30B107E1F70E942D3D0C945F
:1078A000CC3F0C94003C982F959595959595959582
:1078B000905D8F708A307CF0282F295A8091C0000B
:1078C00085FFFCCF9093C6008091C00085FFFCCF60
:1078D0002093C6000895282F205DF0CF982F809127
:1078E000C00085FFFCCF9093C6000895EF92FF92F1
:1078F0000F931F93EE24FF2487018091C00087FD22
:1079000017C00894E11CF11C011D111D81E4E8164B
:1079100082E4F8068FE0080780E0180770F3E09132
:107920000401F091050109958091C00087FFE9CF1E
:107930008091C6001F910F91FF90EF9008950E94D3
:10794000763C982F8091C00085FFFCCF9093C600B5
:1079500091362CF490330CF09053892F089597555D
:10796000892F08951F930E949F3C182F0E949F3CCF
:107970001295107F810F1F9108951F93182F882350
:1079800021F00E94763C1150E1F71F9108951F935A
:10799000182F0E94763C803249F0809103018F5F5E
:1079A000809303018530C1F01F9108958091C0003C
:1079B00085FFFCCF84E18093C6008091C00085FFE5
:1079C000FCCF1093C6008091C00085FFFCCF80E102
:1079D0008093C6001F910895E0910401F091050184
:1079E00009951F9108950E94763C803241F0809164
:1079F00003018F5F80930301853081F008958091AA
:107A0000C00085FFFCCF84E18093C6008091C00058
:107A100085FFFCCF80E18093C6000895E0910401CA
:107A2000F09105010995089540E951E08823A1F0FE
:107A30002D9A28EE33E0FA013197F1F721503040CA
:107A4000D1F72D9828EE33E0FA013197F1F7215064
:107A50003040D1F7815061F708953F924F925F9285
:107A60006F927F928F929F92AF92BF92CF92DF924E
:107A7000EF92FF920F931F93CF93DF93000080E16B
:107A80008093C4001092C50088E18093C10086E015
:107A90008093C2005098589A259A81E00E94143D24
:107AA00024E1F22E9EE1E92E85E9D82E0FE0C02ECA
:107AB00010E1B12EAA24A394B1E49B2EA6E58A2E50
:107AC000F2E57F2EE0E26E2E79E4572E63E5462E36
:107AD00050E5352E0E94763C8033B1F18133B9F107
:107AE000803409F46FC0813409F476C0823409F41B
:107AF00085C0853409F488C0803531F1823521F1A3
:107B0000813511F1853509F485C0863509F48DC0BC
:107B1000843609F496C0843709F403C1853709F423
:107B200072C1863709F466C0809103018F5F80932C
:107B30000301853079F6E0910401F0910501099582
:107B40000E94763C803351F60E94F33CC3CF0E94E2
:107B5000763C803249F78091C00085FFFCCFF092DF
:107B6000C6008091C00085FFFCCF9092C600809136
:107B7000C00085FFFCCF8092C6008091C00085FFC9
:107B8000FCCF7092C6008091C00085FFFCCF609250
:107B9000C6008091C00085FFFCCF5092C600809146
:107BA000C00085FFFCCF4092C6008091C00085FFD9
:107BB000FCCF3092C6008091C00085FFFCCFB09210
:107BC000C60088CF0E94763C863808F4BDCF0E945C
:107BD000763C0E94F33C7ECF0E94763C803809F4CC
:107BE0009CC0813809F40BC1823809F43CC1883942
:107BF00009F48FC080E00E94C73C6CCF84E10E94F2
:107C0000BD3C0E94F33C66CF85E00E94BD3C0E94D3
:107C1000F33C60CF0E94763C809306010E94763C44
:107C2000809307010E94F33C55CF0E94763C80333D
:107C300009F41DC183E00E94BD3C80E00E94C73C66
:107C400049CF0E94763C809309020E94763C809343
:107C5000080280910C028E7F80930C020E94763C79
:107C6000853409F415C18091080290910902892B8D
:107C700089F000E010E00E94763CF801E85FFE4FDA
:107C800080830F5F1F4F80910802909109020817AF
:107C9000190788F30E94763C803209F045CF809125
:107CA0000C0280FF01C16091060170910701660F0F
:107CB000771F7093070160930601A0910802B091AD
:107CC00009021097C9F0E8E0F1E09B01AD014E0F09
:107CD0005F1FF999FECF32BD21BD819180BDFA9A17
:107CE000F99A2F5F3F4FE417F50799F76A0F7B1F4B
:107CF00070930701609306018091C00085FFFCCF5F
:107D0000F092C6008091C00085FFFCCFB092C60003
:107D1000E1CE83E00E94C73CDDCE82E00E94C73CFA
:107D2000D9CE0E94763C809309020E94763C8093D3
:107D300008028091060190910701880F991F909386
:107D40000701809306010E94763C853409F4A6C0A1
:107D500080910C028E7F80930C020E94763C8032D0
:107D600009F0B8CE8091C00085FFFCCFF092C6002C
:107D7000609108027091090261157105B9F140E046
:107D800050E080910C02A82FA170B82FB27011C0E2
:107D9000BB2309F45CC0E0910601F0910701319624
:107DA000F0930701E09306014F5F5F4F46175707B7
:107DB000E8F4AA2369F3F999FECF209106013091E6
:107DC000070132BD21BDF89A90B58091C00085FFB2
:107DD000FCCF9093C6002F5F3F4F30930701209355
:107DE00006014F5F5F4F4617570718F38091C00099
:107DF00085FDE5CE8091C00085FFF8CFE0CE81E023
:107E00000E94C73C67CE0E94763C803209F08CCE3F
:107E10008091C00085FFFCCFF092C6008091C00029
:107E200085FFFCCFE092C6008091C00085FFFCCFAB
:107E3000D092C6008091C00085FFFCCFC092C600E2
:107E40008091C00085FFFCCFB092C60043CEE09188
:107E50000601F091070194918091C00085FFFCCF4D
:107E60009093C6009CCF80E10E94C73C33CE0E9415
:107E7000763C0E94763C182F0E94763C112309F430
:107E800083C0113009F484C08FE00E94C73C22CE29
:107E900080910C02816080930C02E5CE80910C02EF
:107EA000816080930C0259CF809107018823880F4D
:107EB000880B8A2180930B02809106019091070123
:107EC000880F991F90930701809306018091080203
:107ED00080FF09C080910802909109020196909359
:107EE000090280930802F894F999FECF1127E091D6
:107EF0000601F0910701C8E0D1E08091080290915D
:107F00000902103091F40091570001700130D9F34B
:107F100003E000935700E89500915700017001308D
:107F2000D9F301E100935700E89509901990009169
:107F3000570001700130D9F301E000935700E89534
:107F40001395103498F011270091570001700130FB
:107F5000D9F305E000935700E895009157000170B0
:107F60000130D9F301E100935700E895329602976A
:107F700009F0C7CF103011F00296E5CF112480919F
:107F8000C00085FFB9CEBCCE8EE10E94C73CA2CD19
:107F900085E90E94C73C9ECDF894FFCF8000FFFF8B
:107FA000FFFFFFFFFFFFFFFFFFFFFFFFFFFFFFFFE1
:107FB000FFFFFFFFFFFFFFFFFFFFFFFFFFFFFFFFD1
:107FC000FFFFFFFFFFFFFFFFFFFFFFFFFFFFFFFFC1
:107FD000FFFFFFFFFFFFFFFFFFFFFFFFFFFFFFFFB1
:107FE000FFFFFFFFFFFFFFFFFFFFFFFFFFFFFFFFA1
:107FF000FFFFFFFFFFFFFFFFFFFFFFFFFFFFFFFF91
:00000001FF
